:020000041008E2
:10000000000008282D920810D19A08109598081021
:10001000D59A0810D99A0810DD9A0810000000003F
:1000200000000000000000000000000061990810BE
:10003000E19A081000000000E59A0810E99A0810FB
:100040007B8C0810A18C0810C78C0810ED8C081050
:10005000138D0810398D08105F8D0810858D0810DC
:10006000ED9A0810F19A0810F59A0810F99A0810FC
:10007000FD9A0810019B0810059B0810099B0810A9
:10008000C82E002E802E3DB1C82E002E802E91034A
:10009000802EBCB0802EA303C82E002E802E00B070
:1000A0005030212E59F51030212E6AF5802E3B0359
:1000B0000000000008190100220075000010001067
:1000C000D100B343802E00C1802E00C1802E00C11C
:1000D000802E00C1802E00C1802E00C1802E00C164
:1000E000802E00C1802E00C1802E00C1802E00C154
:1000F000802E00C1802E00C1802E00C1802E00C144
:10010000802E00C1802E00C1802E00C1802E00C133
:10011000802E00C1802E00C1802E00C1802E00C123
:10012000802E00C1802E00C1802E00C1802E00C113
:10013000802E00C1802E00C1802E00C1802E00C103
:10014000802E00C1802E00C1802E00C1802E00C1F3
:10015000802E00C1802E00C1802E00C1802E00C1E3
:10016000802E00C1802E00C1802E00C1E05F000003
:1001700000000100000000000000000000009200EC
:10018000000000000000000000000000000000006F
:1001900008190000880000000000000005E0AA38EF
:1001A00005E09030FA0096004B09110011000200A2
:1001B0002D01D47B3B01DB7A04003F7BCD6CC30473
:1001C0008509C304ECE60C460100270019009600DF
:1001D000A00001000C00F03C000101000300010040
:1001E0000E00000032000500EE060400C80000000A
:1001F0000400A805EE060004BC02B3008507000059
:1002000000000000000000000000000000000000EE
:100210000000B4000100B9000100980000000000D7
:100220000000000001008000040000000000000049
:1002300000000000000000000000000000000000BE
:1002400000000000000000000000000000000000AE
:10025000000000000000000000000000000000009E
:10026000000000000000000000000000000000008E
:1002700000000000000000000000802E00C1FD2DE5
:10028000DE00EB00DA00000CFF0F0004C0005BF59D
:10029000C9011EF280003FFF19F458F566F564F5B8
:1002A000C0F1F000E000CD01D301DB01FF7FFF01D1
:1002B000E40074F7F300FA00FF3FCA036C3856FEFF
:1002C00044FDBC02F90600FC1202AE0158FA9AFD88
:1002D0007705BB02960195017F01820189018701A3
:1002E00088018A018C018F018D0192019101DD004D
:1002F0009F017E01DB00B601706926D39C071F05B4
:100300009D000008BC0537FAA201AA01A101A801BD
:10031000A001A805B401B401CE00D000FC00C501C5
:10032000FFFBB10000380030FDF5FCF5CD01A00069
:100330005FFF0040FF0000806D0FEB007FFFC2F504
:1003400068F7B3F1670F5B0F610F800F58F75BF72A
:10035000830F8600720F850FC6F17F0F6CF700E0E8
:1003600000FFD1F5870F8A0FFF03F03F8B008E004F
:100370009000B9002DF5CAF5CB0120F20000000075
:10038000000000000000000000000000000000006D
:10039000000000000000000000000000000000005D
:1003A000000000000000000000000000000000004D
:1003B000000000000000000000000000000000003D
:1003C000000000000000000000000000000000002D
:1003D000000000000000000000000000000000001D
:1003E000000000000000000000000000000000000D
:1003F00000000000000000000000000000000000FD
:1004000000000000000000000000000000000000EC
:1004100000000000000000000000000000000000DC
:1004200000000000000000000000000000000000CC
:1004300000000000000000000000000000000000BC
:1004400000000000000000000000000000000000AC
:1004500000000000000000003050982ED70E5032EF
:10046000982EFA030030F07F002E002ED02E002EA2
:10047000018008A2FB2F982EBA03212E1900012E0D
:10048000EE0000B2072F012E190000B2032F015019
:100490000352982E07CC012EDD0000B2272F052E27
:1004A0008A000552982EC7C1032EE90040B2F07FA2
:1004B000082F012E190000B2042F0030212EE90070
:1004C000982EB4B1012E180000B2102F0550982EAE
:1004D0004DC30550982E5AC7982EF9B4982E54B291
:1004E000982E67B6982E17B21030212E7700012E65
:1004F000EF0000B2042F982E7AB70030212EEF00C3
:10050000012ED40004AE0B2F012EDD0000B2072F08
:100510000552982E8E0E00B2022F1030212E7D0033
:10052000012E7D000090902EF102012ED70000B226
:10053000042F982E2F0E0030212E7B00012E7B00E1
:1005400000B2122F012ED4000090022F982E1F0E01
:10055000092D982E810D012ED4000490022F5032C7
:10056000982EFA030030212E7B00012E7C0000B271
:10057000902E0903012E7C000131010800B2042FE6
:10058000982E47CB1030212E77008130012E7C0031
:10059000010800B2612F032E8900012ED40098BCFF
:1005A00098B805B20F58232F079009540030372F01
:1005B00015410441DCBE44BEDCBA2C0161000F567B
:1005C0004A0F0C2FD14294B8C1421130052E6AF760
:1005D0002CBD2FB980B20822982EC3B7212D6130CF
:1005E000232ED400982EC3B70030212E5AF5182D93
:1005F000E17F5030982EFA030F520750504270306E
:100600000D5442427E82E26F80B24242052F212E7B
:10061000D4001030982EC3B7032D6030212ED400A3
:10062000012ED4000690182F012E76000B5407528D
:10063000E07F982E7AC1E16F081A4030082F212EF2
:10064000D4002030982EAFB75032982EFA03052DE3
:10065000982E380E0030212ED4000030212E7C0040
:10066000182D012ED40003AA012F982E450E012E1D
:10067000D4003F8003A2012F002E022D982E5B0E86
:100680003030982ECEB70030212E7D005032982E7B
:10069000FA03012E770000B2242F982EF5CB032EFB
:1006A000D5001154010ABC848386212EC901E04083
:1006B0001352C4408240A8B9524243BE5342040A76
:1006C0005042E17FF0314140F26F25BD0808020A37
:1006D000D07F982EA8CF06BCD16FE26F080A804267
:1006E000982E58B70030212EEE00212E7700212EB3
:1006F000DD00802EF4011A242200802EEC0110501F
:10070000FB7F982EF3035750FB6F01307154114259
:10071000420EFC2FC02E0142F05F802E00C1FD2D45
:100720000100000000000000000000009A013403F6
:1007300000000000000000000000000000000000B9
:1007400000000000000000000000000000000000A9
:100750000000000000000000000000000000000099
:100760000000000000000000000000000000000089
:100770000000000000000000000000000000000079
:100780000000000000000000000000000000000069
:100790000000000000000000000000000000000059
:1007A00000002050E77FF67F06320F2E61F5FE092C
:1007B000C0B3042F17302F2EEF002D2E61F5F66FEA
:1007C000E76FE05FC82E2050E77FF67F46300F2EA0
:1007D000A4F1BE0980B3062F0D2ED40084AF022FE2
:1007E00016302D2E7B0086302D2E60F5F66FE76FCC
:1007F000E05FC82E012E77F709BC0FB800B2105089
:10080000FB7F10300B2F032E8A0096BC9FB840B29E
:10081000052F032E68F79EBC9FB840B2072F032E0A
:100820007E004190012F982EDC03032C0030212EF6
:100830007E00FB6FF05FB82E2050E07FFB7F002E24
:100840002750982E3BC82950982EA7C80150982EA3
:1008500055CCE16F2B50982EE0C9FB6F0030E05F64
:10086000212E7E00B82E7350013057541142420E93
:10087000FC2FB82E212E59F51030C02E212E4AF112
:100880009050F77FE67FD57FC47FB37FA17F907FB5
:10089000827F7B7F982E35B700B2902E97B0032EC3
:1008A0008F00072E9100052EB1003FBA9FB8012E90
:1008B000B100A3BD4C0A052EB10004BEBFB9CB0ADE
:1008C0004FBA22BD012EB300DC0A2FB9032EB800A7
:1008D0000ABE9A0ACFB99BBC012E97009FB8930A13
:1008E0000FBC910A0FB8900A252E1800052EC1F5ED
:1008F0002EBD2EB9012E190031308A040090072F29
:10090000012ED40004A2032F012E180000B20C2FD8
:1009100019500552982E4DB7052E78008090103052
:10092000012F212E7800252EDD00982E3EB700B233
:1009300002300130042F012E190000B2002F2130A7
:10094000012EEA00081A0E2F232EEA0033301B5026
:100950000B090140175646BE4B084C0A01420A805B
:1009600015520142002E012E180000B21F2F032E37
:10097000C0F5F030480847AA7430072E7A0061228B
:100980004B1A052F072E66F5BFBDBFB9C0900B2FC0
:100990001D562B30D242DB420104C24204BDFE8010
:1009A0008184232E7A0002420232252E62F5052E22
:1009B000D6008184252ED6000231252E60F5052E25
:1009C0008A000B50900880B20B2F052ECAF5F03E1E
:1009D0009008252ECAF5052E59F5E03F9008252EE2
:1009E00059F5906FA16FB36FC46FD56FE66FF76F56
:1009F0007B6F826F705FC82EC050907FE57FD47F81
:100A0000C37FB17FA27F877FF67F7B7F002E012E81
:100A100060F5607F982E35B70230636F1552507FB6
:100A2000627F5A2C02321A0900B3142F00B2032F2E
:100A3000092E180000910C2F437F982E97B71F5056
:100A4000028A02320430252E64F51552506F436F2E
:100A50004443252E60F5D908C0B2362F982E3EB7F4
:100A600000B2062F012E190000B2022F506F009025
:100A70000A2F012E79000090192F1030212E7900B5
:100A80000030982EDC03132D012EC3F50CBC0FB8DB
:100A90001230100403B0262521500352982E4DB772
:100AA0001030212EEE000230607F252E7900606F1D
:100AB0000090052F0030212EEA001550212E64F5FC
:100AC0001552232E60F50232506F0090022F033032
:100AD000272E7800072E60F51A090091A32F190917
:100AE0000091A02F906FA26FB16FC36FD46FE56FAD
:100AF0007B6FF66F876F405FC82EC050E77FF67F31
:100B000026300F2E61F52F2E7C000F2E7C00BE09A3
:100B1000A27F807F80B3D57FC47FB37F917F7B7FAF
:100B20000B2F23501A251240427F74821240527FAD
:100B3000002E0040607F982E6AD68130012E7C0006
:100B4000010800B2422F032E8900012E890097BCB4
:100B500006BC9FB80FB80090232ED800103001308B
:100B60002A2F032ED40044B2052F47B200302D2F78
:100B7000212E7C002B2D032EFDF59EBC9FB84090AE
:100B8000142F032EFCF599BC9FB840900E2F032E16
:100B900049F125544A084090082F982E35B700B2E5
:100BA0001030032F5030212ED400102D982EAFB7C7
:100BB0000030212E7C000A2D052E69F72DBD2FB99E
:100BC00080B2012F212E7D00232E7C00E031212ECA
:100BD00061F5F66FE76F806FA26FB36FC46FD56F6B
:100BE0007B6F916F405FC82E60510A253688F47F75
:100BF000EB7F0032315232301330982E15CB0A255C
:100C00003384D27F433005502D52982E95C1D26F38
:100C10002752982ED7C72A25B086C07FD37FAF84AE
:100C20002950F16F982E4DC82A25AE8AAA88F26EF7
:100C30002B50C16FD36FF47F982EB6C8E06E00B210
:100C4000322F33548386F16FC37F04303030F47F0A
:100C5000D07FB27FE330C56F56404541280803146A
:100C60000EB408BC8240100A2F542605917F4428F8
:100C7000A37F982ED9C008B933305309C16FD36F01
:100C8000F46F831747406C15B26FBE09750B904225
:100C90004542510E32BC0289A16F7E86F47FD07F1F
:100CA000B27F0430916FD62FEB6FA05EB82E032E6B
:100CB00097001BBC60509FBC0CB8F07F40B2EB7F2C
:100CC0002B2F032E7F004140012EC800011A112F47
:100CD0003758232EC8001041A07F38810141D07FB2
:100CE000B17F982E64CFD06F0780A16F1142002E84
:100CF000B16F01421130012EFC0000A80330CB225D
:100D00004A25012E7F003C8935520554982EC4CEC9
:100D1000C16FF06F982E95CF042D0130F06F982E93
:100D200095CFEB6FA05FB82E032EB3000232F030E8
:100D3000033130508A080808CB08E07F80B2F37F87
:100D4000DB7F252F032ECA004190042F0130232E74
:100D5000CA00982E3F03C0B2052F032EDA000030E0
:100D60004104232EDA00982E92B21025F06F00B2C3
:100D7000052F012EDA0002301004212EDA0040B2D5
:100D8000012F232EC801DB6FE06FD05F802E95CF3F
:100D90000130E06F982E95CF1130232ECA00DB6F03
:100DA000D05FB82ED0500A2533845550D27FE27FD1
:100DB000038CC07FBB7F0030055A39545141A57F59
:100DC000967F807F982ED9C00530F57F2025916FC2
:100DD0003B583D5C3B56982E67CCC16FD56F524057
:100DE0005043C17FD57F1025982EFEC91025982E1F
:100DF00074C0866F3028926F828CA56F6F52690E17
:100E00003954DB2F19A01530032F0030212E81011A
:100E10000A2D012E810105284236212E8101020E64
:100E2000012F982EF303575012300140982EFEC91F
:100E3000516F0B5C8E0E3B6F57580230212E95017F
:100E4000456F2A8DD27FCB7F132F02303F50D27F48
:100E5000A80E0E2FC06F535402005154420E103092
:100E600059520230012F002E032D504242421230BF
:100E7000D27F80B2032F0030212E8001122D012E4F
:100E8000C9000280052E8001113091280040252ED6
:100E90008001100E052F012E7F010190012F982E49
:100EA000F303002EA0410190A67F902EE3B4012E03
:100EB000950100A8902EE3B45B549580824080B2E7
:100EC00002402D8C3F52967F902EC2B3290E762F72
:100ED000012EC900004081284552B330982E0FCA18
:100EE0005D54807F002EA140727F82808240607FAF
:100EF000982EFEC91025982E74C0626F0530874069
:100F0000C0910430052F052E830180B21430002FCC
:100F10000430052EC900736F8140E2406904110F4F
:100F2000E1401630FE29CB40022F836F830F222F22
:100F30004756130F1230772F4954420E1230732F39
:100F400000910A2F012E8B0119A802306C2F6350DB
:100F5000002E17420542682C12300B25080F503026
:100F6000022F212E8301032D4030212E83012B2EB1
:100F700085015A2C123000912B25042F635002302A
:100F80001742172C0242982EFEC91025982E74C0C5
:100F9000052EC90081845B308240372E8301020E0A
:100FA000072F5F52403062404140910E012F212EA9
:100FB000830105302B2E85011230362C1630152575
:100FC000817F982EFEC91025982E74C019A2163064
:100FD000152F052E9701806F820E052F012E860199
:100FE0000628212E86010B2D032E87015F544E28E3
:100FF0009142002E8240900E012F212E8801023056
:10100000132C0530C06F081CA80F163005305B503C
:10101000092F02802D2E820105420580002E0242FA
:101020003E80002E06420230906F3E88014004410F
:101030004C280142078010252440004000A8F522DA
:10104000232944427A827E884340044100ABF52341
:10105000DF284342D9A0142F0090022FD26F81B213
:10106000052F6354062890428542092C02305B50BC
:101070000380292E7E012B2E8201054212302B2E59
:1010800083014582002E40407A8202A0082F6350DF
:101090003B30154205423780372E7E010542123023
:1010A000012EC900028C404084417A8C040F032F2A
:1010B000012E8B0119A4042F2B2E8201982EF303ED
:1010C000123081906152082F654265424380398415
:1010D00082880542454285420543002E80410090AA
:1010E000902EE1B46554C16F804000B243586950FE
:1010F000442F555CB7878C0F0D2E9601C440362FB8
:1011000041568B0E2A2F0B52A10E0A2F052E8F014E
:101110001425982EFEC94B54020F695005306554B2
:10112000152F032E8E014D5C8E0F3A2F052E8F0149
:10113000982EFEC94F54820F053069506554302FE8
:101140006D521530428C454204302B2C84436B5237
:10115000428C002E85431530242C45428E0F202FC3
:101160000D2E8E01B10E1C2F232E8E011A2D0E0E68
:10117000172FA10F152F232E8D01132D982E74C01C
:101180004354C20E0A2F655004800B3006820B4276
:10119000798041401230252E8C0101420530695082
:1011A000655484824384BE8C8440864126299442BF
:1011B000BE8ED57F19A143400B2E8C018440C741C0
:1011C0005D29272945428442C27F012FC0B31D2FCC
:1011D000052E940199A0012F80B3132F80B3182FEF
:1011E000C0B3162F12400140927F982E74C0926FA8
:1011F000100F2030032F1030212E7E010A2D212EBA
:101200007E01072D2030212E7E01032D1030212E4E
:101210007E01C26F012EC900BC8402808240004062
:10122000900ED56F022F1530982EF30341910530A3
:10123000072F67503D802B2E8F0105420480002E22
:101240000542022C00300030A26F988A864080A7A9
:10125000052F982EF303C030212E950106251A255F
:10126000E26F768296405643510EFB2FBB6F305F84
:10127000B82E012EB8000131410840B22050F230A2
:101280000208FB7F0130102F052ECC008190E07FFB
:10129000032F232ECC00982E55B6982E1DB5102561
:1012A000FB6FE06FE05F802E95CF982E95CF1030CA
:1012B000212ECC00FB6FE05FB82E00510558EB7F6C
:1012C0002A2589526F5A895013410640B3011642AC
:1012D000CB160640F3021342650EF52F054014307D
:1012E0002C29044208A10030902E52B6B388B08A4F
:1012F000B684A47FC47FB57FD57F927F73300430DE
:10130000554042408A17F3086B01900253B84B8254
:10131000ADBE717F450A0954847F982ED9C0A36F52
:101320007B54D042A37FF27F607F2025716F755A76
:101330007758795C7556982E67CCB16F626F5042C2
:10134000B17FB3301025982E0FCA846F2029716F9A
:10135000926FA56F76826A0E73300030D02FD26FF5
:10136000D17FB47F982E2BB715BD0BB8020AC26F80
:10137000C07F982E2BB715BD0BB8420AC06F081757
:1013800041188916E118D018A17F27251625982E17
:1013900079C08B54907FB330824080900D2F7D5266
:1013A000926F982E0FCAB26F900E062F8B5014308A
:1013B000426F516F144212420142002E316F982E3B
:1013C00074C0416F807F982E74C0826F10044352A6
:1013D000010F052ECB0000300430212F516F4358F0
:1013E0008C0E04301C2F8588416F04418C0F043013
:1013F000162F8488002E044104058C0E04300F2F14
:101400008288316F044104058C0E0430082F8388D4
:10141000002E04418C0F0430022F212EAD01143018
:101420000091142F032EA10141900E2F032EAD0128
:1014300014304C28232EAD0146A0062F81848D52F6
:1014400048828240212EA10142425C2C0230052EAE
:10145000AA0180B20230552F032EA901926FB3303A
:10146000982E0FCAB26F900F003002304A2FA26F31
:10147000875291008552510E022F002E432C0230CC
:10148000C26F7F52910E02303C2F516F8154982EC3
:10149000FEC91025B3302125982E0FCA326FC07FA8
:1014A000B3301225982E0FCA426FB07FB330122589
:1014B000982E0FCAB26F90288352982EFEC9C26F21
:1014C000900F003002301D2F052EA10180B2123086
:1014D0000F2F426F032EAB01910E0230122F526F6D
:1014E000032EAC01910F02300C2F212EAA010A2CE1
:1014F0001230032ECB008D58088941401143004320
:10150000252EA101D46F8F5200433A89002E10433B
:101510001043610EFB2F032EA001111A022F02258A
:10152000212EA001EB6F005FB82E915210300230D7
:10153000955652424B0EFC2F8D5488829356804212
:101540005342404242868354C02EC242002EA352D0
:101550000051524047401A25012E97008FBE7286D7
:10156000FB7F0B307CBFA5501008DFBA7088F8BF36
:10157000CB42D37F6CBBFCBBC50A907F1B7F0B4368
:10158000C0B2E57FB77FA67FC47F902E1CB7072E21
:10159000D200C0B20B2F9752012ECD00827F982E21
:1015A000BBCC0B30372ED200826F906F1A2500B261
:1015B0008B7F142FA6BD25BDB6B92FB980B2D4B08C
:1015C0000C2F99549B560B300B2EB100A1589B4207
:1015D000DB426C092B2EB1008B42CB42867F738499
:1015E000A756C30839520550727F637F982EC2C038
:1015F000E16F626FD10A012ECD00D56FC46F726F9B
:1016000097529D5C982E06CD236F906F9952C0B271
:1016100004BD5440AFB94540E17F0230062FC0B24F
:101620000230032F9B5C12309443854303BF6FBB92
:1016300080B3202F066F2601166F6E034542C090BF
:10164000292ECE009B52142F9B5C002E9341864185
:10165000E304AE0780AB042F80910A2F866F730FCF
:10166000072F836FC0B2042F544245421230042C1E
:101670001130022C1130113002BC0FB8D27F00B2F1
:101680000A2F012EFC00052EC701101A022F212E51
:10169000C701032D022C01300130B06F982E95CF79
:1016A000D16FA06F982E95CFE26F9F52012ECE0082
:1016B000824050420C2C42421130232ED200013085
:1016C000B06F982E95CFA06F0130982E95CF002E39
:1016D000FB6F005FB82E83860130003094402418E1
:1016E0000600530E4F02F92FB82EA952002E60406B
:1016F00041400DBC98BCC02E010A0FB8AB52533C00
:10170000524040404B00821626B901B841401008B3
:1017100097B80108C02E11300108438625400440C7
:10172000D8BE2C0B2211544203804B0EF62FB82E3C
:101730009F501050AD52052ED300FB7F002E13405A
:101740009342410EFB2F982EA5B7982E87CF012EDE
:10175000D90000B2FB6F0B2F012E69F7B13F0108D2
:101760000130F05F232ED900212E69F7802E7AB741
:10177000F05FB82E012EC0F8032EFCF51554AF56BD
:1017800082080B2E69F7CB0AB1588090DDBE4C0859
:101790005FB959228090072F0334C308F23A0A0830
:1017A0000235C0904A0A4822C02E232EFCF5105064
:1017B000FB7F982E56C7982E49C31030FB6FF05F01
:1017C000212ECC00212ECA00B82E032ED30016B82D
:1017D00002344A0C212E2DF5C02E232ED30003BC3B
:1017E000212ED500032ED50040B21030212E7700D7
:1017F0000130052F052ED8008090012F232E6FF584
:10180000C02E212ED90011308108012E6AF7713FB8
:1018100023BD0108020AC02E212E6AF730250030B0
:10182000212E5AF51050212E7B00212E7C00FB7FAB
:10183000982EC3B74030212ED400FB6FF05F0325F4
:10184000802EAFB7802E00C1802E00C1802E00C137
:10185000802E00C1802E00C1802E00C1802E00C1CC
:10186000802E00C1802E00C1802E00C1802E00C1BC
:10187000802E00C1802E00C1802E00C1802E00C1AC
:10188000012E5DF708BC80AC0EBB022F0030410476
:101890008206C0A40030112F40A9032F40910D2FC4
:1018A00000A70B2F80B3B358022F90A1261320233B
:1018B00080901030012FCC0E002F0030B82EB55084
:1018C000180808BC88B60D17C6BD56BCB758DABA9A
:1018D00004011D0A1050053032254503FB7FF63008
:1018E0002125982E37CA16B59ABC06B880A8410A99
:1018F0000E2F8090022F2D50480F092FBFA0042FCC
:10190000BF90062FB754CA0F032F002E022CB752D8
:101910002D52F233982ED9C0FB6FF137C02E01083B
:10192000F05FBF56B954D040C4400B2EFDF3BF52F8
:101930009042944295420530C1500F8806400441C0
:101940009642C54248BE73300D2ED8004FBA84422D
:10195000034281B3022F2B2E6FF5062D052E77F74C
:10196000BD569308252E77F7BB54252EC2F5072EBA
:10197000FDF34230B433DA0A4C00272EFDF3434026
:10198000D43FDC084342002E002E43402430DC0AC2
:1019900043420480032EFDF34A0A232EFDF36134F3
:1019A000C02E0142002E60501A257A86E07FF37F18
:1019B0000325C3524184DB7F3330982E16C21A258B
:1019C0007D82F06FE26F32251640944026018540FB
:1019D0008E17C4426E039542410EF42FDB6FA05F59
:1019E000B82EB051FB7F982EE80D5A25982E0F0E79
:1019F000CB583287C47F65896B8DC55A657FE17F7F
:101A0000837FA67F747FD07FB67F947F1730C752C5
:101A1000C954517F002E856F427F002E5141458170
:101A2000424113403B8A00404B04D006C0AC857F46
:101A3000022F02305104D306418405305D02C916DD
:101A4000DF08D3008D02AFBCB1B9590A656F1143ED
:101A5000A1B4524153410143347F657F2631E56F84
:101A6000D46F982E37CA326F756F83404241237FFF
:101A7000127FF63040255125982E37CA146F200565
:101A8000706F256F6907A26F316F0B3004429B4264
:101A90008B425542327F40A9C36F717F0230D040E4
:101AA000C37F032F4091152F00A7132F00A4112FE0
:101AB00084BD982E79CA556FB75454418200F33FC4
:101AC0004541CB02F630982E37CA356FA46F41439B
:101AD000032C0043A46F356F1730426F516F934052
:101AE00042820041C3000343517F002E9440414194
:101AF0004C02C46FD156630E746F5143A57F8A2F79
:101B0000092ED80001B3212FCB58906F1341B66F27
:101B1000E47F002E9141144092411540172E6FF53D
:101B2000B67FD07FCB7F982E000C0715C26F140BA9
:101B3000292E6FF5C3A3C18FE46FD06FE62F143049
:101B4000052E6FF5140B292E6FF5182DCD56043286
:101B5000B56F1C0151415241C340B57FE47F982EBF
:101B60001F0CE46F218700430432CF545A0EEF2F2D
:101B70001554092E77F7220B292E77F7FB6F505E4D
:101B8000B82E1050012ED40000B2FB7F512F01B2AD
:101B9000482F02B2422F0390562FD75279804240ED
:101BA000818400404242982E930CD954D750A140D2
:101BB00098BD82403E82DA0A44408B16E3005342CD
:101BC000002E43409A025242002E414015544A0EC4
:101BD0003A2F3A8200304140212E850F40B20A2F21
:101BE000982EB10C982E450E982E5B0EFB6FF05F71
:101BF0000030802ECEB7DD52D35442424F84733032
:101C0000DB5283421B306B422330272ED700372E06
:101C1000D400212ED6007A84172C42423030212E57
:101C2000D400122D21300030232ED400212E7BF73A
:101C30000B2D1730982E510CD5500C8272302F2E50
:101C4000D400252E7BF74042002EFB6FF05FB82EAC
:101C500070500A253986FB7FE1326230982EC2C46B
:101C6000B556A56FAB08916F4B08DF56C46F2309BB
:101C70004DBA93BC8C0BD16F0B09CB52E15E56422F
:101C8000AF094DBA23BD940AE56F68BBEB08BDB937
:101C900063BEFB6F5242E30AC02E4342905FD150B5
:101CA000032E25F3134000409BBC9BB408BDB8B97C
:101CB00098BCDA0A08B68916C02E190062021050C4
:101CC000FB7F982E810D012ED40031300804FB6F6C
:101CD0000130F05F232ED600212ED700B82E012E22
:101CE000D700032ED600480E012F802E1F0EB82ECF
:101CF000E350213401428230C132252E62F50100C9
:101D0000223001404A0A0142B82EE354F03B83409E
:101D1000D808E5528342003083305042C432272E27
:101D200064F5940050424042D33F84407D82E308F2
:101D300040428342B82EDD52003040427C86B95288
:101D4000092E700FBF54C442D3865440554094426C
:101D50008542212ED7004240252EFDF3C0427E82CF
:101D6000052E7D0080B2142F052E890027BD2FB9C6
:101D70008090022F212E6FF50C2D072E710F14303D
:101D80001C09052E77F7BD5647BE9308940A252EE9
:101D900077F7E75450424A0EFC2FB82E50500230CD
:101DA0004386E550FB7FE37FD27FC07FB17F002E6B
:101DB000414000404804982E74C01EAAD36F1430CE
:101DC000B16FE322C06F5240E46F4C0E1242D37FDA
:101DD000EB2F032E860F40901130032F232E860FFA
:101DE000022C0030D06FFB6FB05FB82E4050F17FF7
:101DF0000A253C86EB7F41332230982EC2C4D36F34
:101E0000F430DC094758C26F9409EB586ABBDC0810
:101E1000B4B9B1BDE95A950821BDF6BF770B51BEE3
:101E2000F16FEB6F52425442C02E4342C05F50509C
:101E3000F55031301142FB7F7B300B421130028074
:101E4000233301420300072E8003052ED3002352C3
:101E5000E27FD37FC07F982EB60ED16F080A1A2575
:101E60007B86D07F01331230982EC2C4D16F080A0E
:101E700000B20D2FE36F012E80035130C786232E51
:101E800021F208BCC042982EA5B7002E002ED02EFD
:101E9000B06F0BB8032E1B00081AB07F7030042FF0
:101EA000212E21F2002E002ED02E982E6DC0982EBD
:101EB0005DC0ED50982E44CBEF50982E46C3F150A4
:101EC000982E53C73550982E64CF1030982EDC03CF
:101ED0002026C06F02311242AB330B4237800130F3
:101EE0000142F337F752FB504440A20A42428B3181
:101EF000092E5EF7F954E30883421B4223334B005B
:101F0000BC840B40333083420B42E07FD17F982E5C
:101F100058B7D16F803040420330E06FF354043043
:101F2000002E002E0189620EFA2F43421130FB6F02
:101F3000C02E0142B05FC14A00006D570000778E8D
:101F40000000E0FFFFFFD3FFFFFFE5FFFFFFEEE133
:101F5000FFFF7C13000046E6FFFF000000000000CA
:101F60000000000000000000000000000000000071
:101F70000000000000000000000000000000000061
:101F80000000000000000000000000000000000051
:101F900000000000802E00C1802E00C1802E00C1F4
:101FA000802E00C1802E00C1802E00C1802E00C175
:101FB000802E00C1802E00C1802E00C1802E00C165
:101FC000802E00C1802E00C1802E00C1802E00C155
:101FD000802E00C1802E00C1802E00C1802E00C145
:101FE000802E00C1802E00C1802E00C1802E00C135
:101FF000802E00C1802E00C1802E00C1802E00C125
:10200000802E00C1802E00C1802E00C1802E00C114
:10201000802E00C1802E00C1802E00C1802E00C104
:10202000802E00C1802E00C1802E00C1802E00C1F4
:10203000802E00C1802E00C1802E00C1802E00C1E4
:10204000802E00C1802E00C1802E00C1802E00C1D4
:10205000802E00C1802E00C1802E00C1802E00C1C4
:10206000802E00C1802E00C1802E00C1802E00C1B4
:10207000802E00C1802E00C1802E00C1802E00C1A4
:10208000D0F80803C005C00D704710F541710A680B
:1020900052F480320A6010F541710A6832F48032DD
:1020A0000A60D0F804037047C0F840127047D0F8B7
:1020B0000802C005C00D7047D0F80802C0F3C03058
:1020C000704738B505002800FFF7F1FF040028002D
:1020D000FFF7F2FF0419002C01D1012000E00020DD
:1020E000C0B232BD0068C0F38130002801D1802029
:1020F00000E040207047016851F0004101607047E6
:102100002030026861F39B620260704780B5FFF780
:10211000B7FF02BD80B5FFF7B8FF01BD022801D3AC
:10212000012010E00B00DBB2042B01DB01200AE0F0
:10213000DFF8103803EB8000C9B2405C824201D363
:10214000012000E000207047F8B504000F001500E2
:102150001E00022C01D301202AE02A003900C9B256
:102160002000FFF7DBFF012801D1012020E00698C5
:102170003900C9B202291ED1B6F5803F19D22028F4
:1021800017D24FF4C052DFF8C01763030B4403EBC0
:10219000850313441F6866F317271F6064032144F7
:1021A00001EB850111440A6860F3C7020A60002050
:1021B000F2BD0120FCE7FFB2032F1FD1B6F1807FF3
:1021C0001AD2202818D24FF4E052DFF87C176303AC
:1021D0000B4403EB850313441F6807F0FF0757EA1E
:1021E00006271F606403214401EB850111440A683E
:1021F00060F3C7020A60DAE70120D9E70120D7E7D8
:1022000000B20012C0B27047F8B505000E0017000A
:10221000280000B2FFF7F4FF04002000C0B202283B
:1022200001D3012024E03A003100C9B22000C0B23D
:10223000FFF774FF012801D1012019E0DFF808172A
:102240002000C0B2400308442A00D2B200EB820052
:10225000D0F8000CF6B266F3092067F30700E4B289
:1022600064032144EDB201EB8501C1F8000C0020AC
:10227000F2BD70B504000D001600022C01D3012040
:102280001DE032002900C9B22000FFF747FF0128F6
:1022900001D1012013E0DFF8B0166003085850F0B8
:1022A000004050F0407050F47F00EDB265F309201B
:1022B00066F307006203885064030859002070BD6C
:1022C0000100C020C9B2002905D0022907D004D3DB
:1022D000032906D006E0122004E0622002E07A2002
:1022E00000E01A20C0B270470100C020C9B2002926
:1022F00005D0022907D004D3032906D006E0112017
:1023000004E0612002E0792000E01920C0B27047AB
:102310000100C020C9B2002905D0022907D004D38A
:10232000032906D006E0102004E0602002E07820B7
:1023300000E01820C0B270470100C020C9B20029D7
:102340000BD002290DD00AD304290ED00BD30629B5
:102350000FD00CD307290ED00EE013200CE0142070
:102360000AE0632008E0642006E07B2004E02920E6
:1023700002E01B2000E01C20C0B2704701000020DA
:10238000C9B2002905D0022907D004D3032906D0F9
:1023900006E0132004E0132002E0132000E01320E5
:1023A000C0B2704701000020C9B2002905D002293F
:1023B00007D004D3032906D006E0132004E013203D
:1023C00002E0132000E01320C0B27047010000209B
:1023D000C9B2002905D0022907D004D3032906D0A9
:1023E00006E0132004E0132002E0132000E0132095
:1023F000C0B2704701000020C9B200290BD00229E9
:102400000DD00AD304290ED00BD306290FD00CD33C
:1024100007290ED00EE013200CE013200AE0132051
:1024200008E0132006E0132004E0132002E013204C
:1024300000E01320C0B27047C9B2082902D01029A9
:1024400046D096E0DFF8E8150200D2B251F822201B
:10245000126832F440420300DBB251F823301A60B4
:102460000200D2B251F82220D2F8002252095201C1
:102470000300DBB251F82330C3F800220200D2B2CD
:1024800051F82220D2F8002252F007020300DBB2FA
:1024900051F82330C3F800220200D2B251F82220B2
:1024A000D2F80023520952010300DBB251F8233065
:1024B000C3F800230200D2B251F82220D2F8002340
:1024C00052F00702C0B251F82000C0F8002350E0DB
:1024D000DFF85C150200D2B251F82220126832F403
:1024E00040420300DBB251F823301A600200D2B23E
:1024F00051F82220126852F480420300DBB251F8F6
:1025000023301A600200D2B251F82220D2F8002201
:10251000520952010300DBB251F82330C3F8002204
:102520000200D2B251F82220D2F8002252F00F025B
:102530000300DBB251F82330C3F800220200D2B20C
:1025400051F82220D2F80023520952010300DBB2D5
:1025500051F82330C3F800230200D2B251F82220F0
:10256000D2F8002352F00F02C0B251F82000C0F898
:1025700000237047F8B504000E0008212000C0B207
:10258000FFF75AFFDFF8AC542000C0B2285C0828DF
:102590000FD02000C0B2285CC010DFF89C1411EBF3
:1025A000C01101202200D2B2AA5C12F007029040B2
:1025B0000860DFF87C74F6B231002000C0B257F832
:1025C0002000FFF771FD2000C0B257F82000FFF790
:1025D00089FD06002000C0B257F82000FFF767FD14
:1025E0008642F0D02000C0B257F82000FFF769FD06
:1025F0000028F7D02000C0B2285C08280ED02000A8
:10260000C0B2285CC010DFF8341411EBC0110120F7
:10261000E4B22A5D12F0070290400860F1BDF8B5FF
:1026200004000E0010212000C0B2FFF705FFDFF804
:1026300004542000C0B2285C08280FD02000C0B28B
:10264000285CC010DFF8F01311EBC011012022004C
:10265000D2B2AA5C12F0070290400860DFF8D07393
:10266000B6B231002000C0B257F82000FFF71CFDC1
:102670002000C0B257F82000FFF734FD060020000C
:10268000C0B257F82000FFF712FD8642F0D02000BC
:10269000C0B257F82000FFF714FD0028F7D0200043
:1026A000C0B2285C08280ED02000C0B2285CC01040
:1026B000DFF8881311EBC0110120E4B22A5D12F09B
:1026C000070290400860F1BD2DE9F84307000D00B6
:1026D000140010213800C0B2FFF7AEFEDFF85463DB
:1026E0003800C0B2305C08280FD03800C0B2305C6F
:1026F000C010DFF8441311EBC01101203A00D2B230
:10270000B25C12F0070290400860DFF82483298849
:102710003800C0B258F82000FFF7C6FCAD1C3800E6
:10272000C0B258F82000FFF7DDFC81463800C0B287
:1027300058F82000FFF7BBFC8145F0D0641E002C48
:10274000E3D13800C0B258F82000FFF7BAFC0028E7
:10275000F7D03800C0B2305C08280ED03800C0B2C4
:10276000305CC010DFF8D41211EBC0110120FFB2B1
:10277000F25D12F0070290400860BDE8F1832DE998
:10278000F04104000F00160008212000C0B2FFF73E
:1027900053FEDFF8A0522000C0B2285C08280FD0FA
:1027A0002000C0B2285CC010DFF88C1211EBC01101
:1027B00001202200D2B2AA5C12F007029040086009
:1027C000DFF86C82FFB239002000C0B258F8200058
:1027D000FFF76AFC2000C0B258F82000FFF782FC27
:1027E00007002000C0B258F82000FFF760FC8742C5
:1027F000F0D0F6B231002000C0B258F82000FFF748
:1028000053FC2000C0B258F82000FFF76BFC060014
:102810002000C0B258F82000FFF749FC8642F0D0F3
:102820002000C0B258F82000FFF74BFC0028F7D07A
:102830002000C0B2285C08280ED02000C0B2285C5E
:10284000C010DFF8F81111EBC0110120E4B22A5DCD
:1028500012F0070290400860BDE8F0812DE9F843CE
:102860000600894615001C0008213000C0B2FFF7A1
:10287000E3FDDFF8C0713000C0B2385C08280FD02B
:102880003000C0B2385CC010DFF8AC1111EBC011E1
:1028900001203200D2B2BA5C12F007029040086008
:1028A000DFF88C815FFA89F949463000C0B258F8E8
:1028B0002000FFF7F9FB3000C0B258F82000FFF706
:1028C00011FC81463000C0B258F82000FFF7EFFB42
:1028D0008145F0D029783000C0B258F82000FFF7C9
:1028E000E3FB6D1C3000C0B258F82000FFF7FAFB84
:1028F00081463000C0B258F82000FFF7D8FB814570
:10290000F0D0641E002CE5D13000C0B258F8200091
:10291000FFF7D7FB0028F7D03000C0B2385C08289A
:102920000ED03000C0B2385CC010DFF8101111EBCF
:10293000C0110120F6B2BA5D12F0070290400860A3
:10294000BDE8F183549A0810000004402DE9F843D3
:1029500080460D0016001C0008214046C0B2FFF75B
:102960006BFD344F4046C0B2385C08280ED040465C
:10297000C0B2385CC010304911EBC0110120424692
:10298000D2B2BA5C12F0070290400860DFF8A09063
:10299000EDB229004046C0B259F82000FFF784FB91
:1029A0004046C0B259F82000FFF7B0FB0028F7D02E
:1029B0004046C0B259F82000FFF7ACFB002140466A
:1029C000C0B259F82000FFF76FFB4046C0B259F87B
:1029D0002000FFF776FB0028F7D04046C0B259F838
:1029E0002000FFF793FB0028F7D04046C0B259F80B
:1029F0002000D0F840033070761C641E002CDDD11E
:102A00004046C0B2385C08280FD04046C0B2385C9F
:102A1000C0100A4911EBC01101205FFA88F817F8BD
:102A2000082012F0070290400860BDE8F183000022
:102A30005CBF0228183303280400314008003140ED
:102A40002DE9F04F9DB004000D001E009200002300
:102A5000A148002100F046F90700342100220DF1C1
:102A60000408404600F056FA3C2100220DF13808D7
:102A7000404600F04FFA20003100C0B2C9B288428F
:102A800001D1012000E00020DDF89890DFF84CA291
:102A90004FF464725146C0B200F03DFC300049462C
:102AA000C0B2C9B2884201D1012000E00020DDF8A7
:102AB0009C8040F291325146C0B200F02CFC0620BE
:102AC00002904846C0B2FFF76DFC8DF80C004846F6
:102AD000C0B2FFF709FC82465FF0080B4846C0B25F
:102AE000FFF702FCDFF8F89101AA9AFBFBF10BFB60
:102AF00011AA5146C0B2C010C001484400F029FDDF
:102B0000062002903000C0B2FFF738FC8DF80C00B0
:102B10003000C0B2FFF7D4FB82465FF0080B3000F4
:102B2000C0B2FFF7CDFB01AA9AFBFBF10BFB11AA88
:102B30005146C0B2C010C001484400F00AFD4046F2
:102B4000C0B204281ED0082002904046C0B2FFF751
:102B50003DFC8DF80C004046C0B2FFF7D9FB0600E3
:102B60005FF0080A4046C0B2FFF7D2FB01AA96FB0D
:102B7000FAF10AFB11663100C0B2C010C00148442E
:102B800000F0E7FC289E3000C0B208281ED00620C6
:102B900002903000C0B2FFF72DFC8DF80C00300021
:102BA000C0B2FFF7C9FB80465FF0080A3000C0B230
:102BB000FFF7C2FB01AA98FBFAF10AFB1188414614
:102BC000C0B2C010C001484400F0C3FC2000C0B235
:102BD000032803D22000C0B2401C00E000202200E5
:102BE000D2B2121D032110F58F7000B2FFF70CFB5B
:102BF0002000C0B2032803D22000C0B2401C00E075
:102C0000002010F58F7000B2FFF7FAFA17F01F01DD
:102C10000091C7F357132200D2B2121D0321C0B294
:102C2000FFF792FA2000C0B2032803D22000C0B2FE
:102C3000401C00E0002010F58F7000B2FFF7E0FAB2
:102C40002200D2B2121D0321C0B2FFF712FBEDB277
:102C5000002D05D0022D09D005D3032D09D00AE09F
:102C60000020109007E00120109004E00220109056
:102C700001E00320109001200E9000200F9004200E
:102C80001190082012900820139001208DF8500018
:102C900001208DF853000F4D00220EA92000C0B274
:102CA00055F8200000F094FC00212000C0B255F837
:102CB0002000FFF725FA2000C0B255F82000FFF7EA
:102CC0001AFA0348E4B206551DB0BDE8F08F0000C3
:102CD000183303285CBF02280080969820970810BC
:102CE00000003140BBBBE1B1B2F5803F80F07E8097
:102CF000022A1ED98C46B1FBF2F102FB11C31B0460
:102D000043EA1043B3FBF2FC02FB1C3380B240EAFF
:102D10000343B3FBF2F002FB103240EA0C40002305
:102D20007047022A05D98446B0FBF2F002FB10C2BC
:102D300070474AB105D100F0010249085FEA30004E
:102D4000704700220023704700F03ABD0B000200DC
:102D5000002100207047904271EB030CF6D3B3F5CD
:102D6000803F2FD2F0B5B3FA83F7B1FA81F4A7F11F
:102D70000F0E3D1B5340CEF1200602FA0EF2F34136
:102D80005340B5F10F0746D80F3C2C444140C4F1E5
:102D90002006A040F1414140B1FBF3F603FB1611C0
:102DA000A2FB0645001BA94102D2761E801859419C
:102DB00080EA010221FA0EF362FA0EF200215A4073
:102DC0003046F0BD30B4B1FBF3FC03FB1C11A2FB99
:102DD0000C45001BA94103D2ACF1010C80185941EC
:102DE00030BC02460B46604600217047B2F1807F3E
:102DF00065D3F0B5B2FA82F7B1FA81F4C7F10F06E4
:102E00003D1B22FA06F307F1110EF24120355A401C
:102E1000B5F10F07B8D94140C4F12006A040F141F7
:102E20004140B1FBF3FC03FB1C11A2FB0C45001B52
:102E3000A94103D2BCF1010C801859410F2F12D3C4
:102E40000F3FC90341EA5041B1FBF3F603FB1611F2
:102E5000A2FB0645D4EBC030A94102D2761E8018F1
:102E6000594146EACC3C07B34140C7F12006B8407F
:102E7000F1414140B1FBF3F603FB1611A2FB0645FD
:102E8000001BA94102D2761E8018594180EA010236
:102E900021FA0EF3C7F1200462FA0EF20CFA07F0E1
:102EA0005A402CFA04F13043F0BD80EA010221FAC5
:102EB0000EF3002162FA0EF260465A40F0BD8C46D5
:102EC000B1FBF2F102FB11C31B0243EA1063B3FB37
:102ED000F2FC02FB1C331B024CEA002043EA1063A5
:102EE000B3FBF2FC02FB1C331B024CEA002043EA5A
:102EF0001063B3FBF2FC02FB1C331B024CEA002004
:102F000043EA1063B3FBF2FC02FB1C324CEA0020E4
:102F10000023704762F30F2262F31F42401810F043
:102F2000030308D0C91A1FD3DB0748BF00F8012DDF
:102F300028BF20F8022D130030B41446154610396E
:102F400028BF20E93C00FAD8490728BF20E90C0037
:102F500048BF40F8042D890028BF20F8022D48BF43
:102F600000F8012D30BC7047C91818BF00F8012DBA
:102F7000CB0728BF00F8012D7047F0B40246106857
:102F800095681318506803EB5004C00748BF4D44C0
:102F9000A3422DD013F8016B16F0030004BF13F801
:102FA000010BC01C31090F2907D113F8011B0F3188
:102FB00003E013F8017B05F8017B401EF9D10029DD
:102FC000E6D013F8010BC6F38106032E08BF13F8F1
:102FD000016B00EB0620404228440026B71E8F42BA
:102FE0001EBF10F8017B05F8017B761CF6D1CFE7F8
:102FF000F0BC02F10C00704782B00020019000206C
:1030000000900020019009E00098401C009000987A
:10301000B0F5005FF8D30198401C01900198B0F51D
:10302000805F02D200200090F1E702B0704780B5C7
:103030000100002000F0AFFD01BD2DE9F043ADF52A
:10304000137D0700884616001C000020ADF8020022
:103050000020ADF80000002002900020ADF8040030
:103060000020ADF80600404600F0B4FF0290DFF803
:1030700090532888002801D028698047DFF884030E
:103080000078002800F033812888002800F01181A2
:10309000BDF90600411CADF806103A00010089B2E6
:1030A0000020EB6898474746404600F093FF0290A7
:1030B0006888A97990FBF1F0ADF804003800471C4E
:1030C00000780028FAD10020ADF800000EE07F1E45
:1030D00038782F2802D038785C2804D1BDF8000059
:1030E000401CADF800000298401E0290BDF80000A0
:1030F000022802DA02980028E9D50298002806D4AE
:103100007A1CDFF8041353A800F080FF0EE0BDF82E
:103110000000002805D13A00BC4953A800F076FF12
:1031200004E03A00B84953A800F070FF0020ADF861
:10313000020042E0BDF80010BDF80020BDF80230EA
:1031400053AF9BB2BDF90400434313FA82F0385CDD
:1031500043AA89B25054BDF80000401CADF80000ED
:10316000BDF8000080B2BDF9041088420EDA53A801
:1031700000F030FFBDF80020BDF802309BB2BDF971
:1031800004104B4313FA82F18842D3D2002043A9A2
:10319000BDF800208854BDF90600411CADF80610AA
:1031A00043AAE97911FB00F189B20020EB68984746
:1031B000BDF80200401CADF80200BDF8027053A833
:1031C00000F008FFBDF90410B0FBF1F0401CBFB2E5
:1031D000874203D20020ADF80000C1E732008C49DD
:1031E00053A800F013FFBDF90600411CADF806100E
:1031F00053AAE97911FB00F189B20020EB689847E6
:10320000002C74D00020ADF8020041E0BDF80010A1
:10321000BDF80020BDF802309BB2BDF90400434365
:1032200013FA82F0205C43AA89B25054BDF8000022
:10323000401CADF80000BDF8000080B2BDF90410DC
:1032400088420EDA200000F0C5FEBDF80020BDF86F
:1032500002309BB2BDF904104B4313FA82F188424D
:10326000D4D2002043A9BDF800208854BDF906003F
:10327000411CADF8061043AAE97911FB00F189B2AF
:103280000020EB689847BDF80200401CADF8020032
:10329000BDF80260200000F09DFEBDF90410B0FBF7
:1032A000F1F0401CB6B2864221D20020ADF80000F9
:1032B000C1E74FF4807100220DF10C094846FFF779
:1032C00029FE3800A9688847002C07D000943300F5
:1032D0004246504903A800F099FE05E033004246FB
:1032E0004D4903A800F092FE03A8A96888470DF590
:1032F000137DBDE8F08310B542480078002809D05E
:10330000474C2100002000F054FC012221004348DA
:1033100000F001FF10BD38B50C001500C0B2002848
:1033200003D140480078002800D131BD3E490878DB
:10333000002800D0FEE70878401C087001F0F4F87F
:1033400000232A0021003948FFF777FEFFF754FEDB
:10335000F6E710B514001A00C0B2002808D12948B9
:103360000078002804D00B0021003148FFF765FEEB
:1033700010BD002101804FF6FF7141808180FF2147
:103380008171C171002181600021C1600021016152
:1033900070471B4902880A8042884A8082888A8056
:1033A00082798A71C279CA7182688A60C268CA6089
:1033B00000690861012013490870704700B585B0A5
:1033C0006846FFF7D6FF1B4802906846FFF7E1FF0B
:1033D00005B000BD80B5FFF7F1FF002300225FF4C8
:1033E000E131002000F00BFD4023134A00210B487F
:1033F00001F031F80121002000F082FC01BD000045
:10340000D032032839330328249A0810F899081079
:10341000309A081028990810C89908108832032893
:103420003A3303289FBF02283B330328089A081029
:103430003C9A08102F3008109C31032830B4614B9F
:103440001818C009604C14EB001404290DD223682D
:103450001F25C8008540AB43D2B212F01F02C9003D
:1034600012FA01F1194321600CE0091F63681F255E
:10347000C8008540AB43D2B212F01F02C9008A4097
:103480001A43626030BC7047002A04D1012212FA4C
:1034900001F1416003E0012212FA01F181607047FD
:1034A00010B48900436C0F248C40A34312F00F0228
:1034B00012FA01F11943416410BC704710B4836CD7
:1034C00001248C40A34312F0010212FA01F11943C6
:1034D000816410BC704710B4C36C01248C40A343BA
:1034E00012F0010212FA01F11943C16410BC7047D5
:1034F00010B449001031C36C03248C40A34312F074
:10350000030212FA01F11943C16410BC7047426909
:10351000012212FA01F141614069704710B48369D8
:1035200001248C40A34312F0010212FA01F1194365
:10353000816110BC704710B44900036C03248C40B7
:10354000A34312F0030212FA01F11943016410BC03
:103550007047F8B505000E0014000027002D2ED08E
:10356000002C2CD0226831002800FFF78DFF227A32
:1035700031002800FFF762FF626931002800FFF781
:103580009DFFA26931002800FFF7A5FFE269310025
:103590002800FFF7ADFF626831002800FFF780FFC9
:1035A000E26831002800FFF7C6FF31002800FFF76E
:1035B000AEFF226931002800FFF7B0FF00E0034FA3
:1035C0003800F2BD0000CFBF0000304001005A00BB
:1035D0002DE9F041DFF8D0311C00DFF8D051D5F8EB
:1035E00000C0DFF8CC512D68DFF8C8613668DFF81D
:1035F000C8713F685FF0000E5FF0000E002800F019
:10360000D080002900F0CD804C68002C01D18C685E
:1036100005E04C68022C01D1002400E00224D1F81E
:1036200010E0D1F81480C64502D3D1F810E001E0D3
:10363000D1F814E0BEF1090F08D23CF4404C91F8E7
:103640002130002B12D05CF4807C11E0BEF1110F10
:1036500003D2012363F38F3CF1E7BEF1210F03D2C4
:10366000022363F38F3CEAE718009BE03CF4807C84
:10367000CB685B1E13F00F035FEA1C1C5FEA0C1C97
:1036800053EA0C0C012363F3196CC0F800C00B7FE4
:10369000002B01D0002300E0012363F300054B68F9
:1036A0001B0963F34105CB7E63F304154B7E63F383
:1036B00045150B68012B01D1012300E0002363F3C2
:1036C000DF7523005B0863F3820564F3C3054B7F5A
:1036D00063F308258B7F63F34925CB7F63F38A254A
:1036E00091F8203063F3CB250B7913F0030363F3D8
:1036F000196505620B7E63F308278B7E63F3492708
:103700000B695B1E13F01F037F097F011F43C0F885
:10371000007391F8243003F0FF0310F5417425681D
:103720002D0A2D022B4323600B7E63F308264B6981
:103730005B1E13F01F03760976011E43C0F800627A
:1037400091F82C3003F0FF0310F5017425682D0A61
:103750002D022B4323600B6BC0F8883F8B6AC0F8A7
:10376000C83F91F8383010F57064256863F3492537
:10377000256091F8391010F574631C6861F3CB244F
:103780001C600021C0F8C81E002A09D0002010606B
:10379000002090610020D0600020D06107481062B6
:1037A00000242000BDE8F0810140AA007C9A0810A6
:1037B000809A0810849A0810889A0810EFCDAB0000
:1037C00070470268531C036011707047022801D3D0
:1037D000012010E00B00DBB2042B01DB01200AE02A
:1037E000DFF8AC3703EB8000C9B2405C824201D302
:1037F000012000E000207047F8B504000F0015001C
:103800001E00022C01D301202AE02A003900C9B28F
:103810002000FFF7DBFF012801D1012020E00698FE
:103820003900C9B202291ED1B6F5803F19D220282D
:1038300017D24FF4C052DFF85C1763030B4403EB5D
:10384000850313441F6866F317271F606403214430
:1038500001EB850111440A6860F3C7020A60002089
:10386000F2BD0120FCE7FFB2032F1FD1B6F1807F2C
:103870001AD2202818D24FF4E052DFF81817630349
:103880000B4403EB850313441F6807F0FF0757EA57
:1038900006271F606403214401EB850111440A6877
:1038A00060F3C7020A60DAE70120D9E70120D7E711
:1038B00000B20012C0B27047F8B505000E00170044
:1038C000280000B2FFF7F4FF04002000C0B2022875
:1038D00001D3012024E03A003100C9B22000C0B277
:1038E000FFF774FF012801D1012019E0DFF8A416C9
:1038F0002000C0B2400308442A00D2B200EB82008C
:10390000D0F8000CF6B266F3092067F30700E4B2C2
:1039100064032144EDB201EB8501C1F8000C0020E5
:10392000F2BD70B504000D001600022C01D3012079
:103930001DE032002900C9B22000FFF747FF01282F
:1039400001D1012013E0DFF84C166003085850F055
:10395000004050F0407050F47F00EDB265F3092054
:1039600066F307006203885064030859002070BDA5
:10397000D0F840037047D0F80803C005C00D704769
:10398000C0F840127047D0F80802C005C00D70475B
:10399000D0F80802C0F3C030704738B505002800E1
:1039A000FFF7F1FF04002800FFF7F2FF0419002CD5
:1039B00001D1012000E00020C0B232BDC0F8C81F14
:1039C0007047D0F8C80F7047C0F8881F7047D0F80C
:1039D000880F7047016851F000410160704738B5A9
:1039E00004001500C9B2002906D002291ED010D348
:1039F000042935D027D340E0DFF89C05A0600120E2
:103A00002073112060734FF48C70E08112202082AB
:103A100039E0DFF88805A060012020731120607371
:103A200040F21D10E0816B2020822CE0DFF8700551
:103A3000A06001202073112060734FF48E70E0812C
:103A40006A2020821FE0DFF85C05A060022020735E
:103A50001120607340F21B10E0816920208212E087
:103A6000DFF84405A06001202073132060734FF439
:103A70008D70E0816820208205E07C22DFF82C1523
:103A80000020FFF748FCEDB2002D06D0022D1ED01D
:103A900010D3042D35D027D340E0DFF8FC0420609C
:103AA00000202071112060714FF48C70E081122091
:103AB000208239E0DFF8E40420600020207111202A
:103AC000607140F21D10E0816B2020822CE0DFF855
:103AD000D004206000202071112060714FF48E709E
:103AE000E0816A2020821FE0DFF8B8042060012016
:103AF00020711120607140F21B10E081692020824A
:103B000012E0DFF8A404206000202071132060710F
:103B10004FF48D70E0816820208205E0A822DFF854
:103B20008C140020FFF7F7FB31BD10B5C0B20028A0
:103B300006D002280AD006D304280DD009D30EE0FF
:103B4000DFF86C4411E0DFF86C440EE0DFF8684405
:103B50000BE0DFF8684408E0DFF8644405E0BD22CC
:103B6000DFF848140020FFF7D6FB200010BD38B561
:103B70000400DFF85054C9B22000C0B255F820004C
:103B8000FFF7FEFE2000C0B255F82000FFF705FF4A
:103B90000028F7D031BD38B504000D0005E02978C4
:103BA0002000C0B2FFF7E3FF6D1C28780028F6D193
:103BB00031BD70B504000D000020DFF8086420005E
:103BC000C0B256F82000FFF7D6FE002807D0E4B2B6
:103BD00056F82400FFF7CCFE2870012000E00020FA
:103BE000C0B270BD70B505000C00DFF8D8632800C6
:103BF000C0B256F82000FFF7EAFE4008400001007E
:103C00002800C0B256F82000FFF7DEFE2800C0B240
:103C100056F82000FFF7DBFE30F00200010028001C
:103C2000C0B256F82000FFF7CFFE2800C0B256F809
:103C30002000FFF7CCFE30F0200001002800C0B2C9
:103C400056F82000FFF7C0FE2800C0B256F820004A
:103C5000FFF7BDFE30F0400001002800C0B256F86A
:103C60002000FFF7B1FE2800C0B256F82000FFF791
:103C7000AEFE30F0100001002800C0B256F820005F
:103C8000FFF7A2FE2800C0B256F82000FFF79FFE03
:103C900030F4807001002800C0B256F82000FFF711
:103CA00093FE2800C0B256F82000FFF790FE30F4D3
:103CB000806001002800C0B256F82000FFF784FEA3
:103CC000002C0ED02800C0B256F82000FFF779FE75
:103CD00050F400700100EDB256F82500FFF774FEB5
:103CE0000DE02800C0B256F82000FFF76AFE30F45D
:103CF00000700100EDB256F82500FFF765FE70BDBB
:103D000070B505000C00DFF8BC622800C0B256F8A0
:103D10002000FFF756FE4008400001002800C0B216
:103D200056F82000FFF74AFE2800C0B256F82000DF
:103D3000FFF747FE30F0080001002800C0B256F837
:103D40002000FFF73BFE2800C0B256F82000FFF726
:103D500038FE30F0200001002800C0B256F82000E4
:103D6000FFF72CFE2800C0B256F82000FFF729FE0E
:103D700030F4807001002800C0B256F82000FFF730
:103D80001DFE2800C0B256F82000FFF71AFE30F4DE
:103D9000007001002800C0B256F82000FFF70EFEA8
:103DA0002800C0B256F82000FFF70BFE30F4006088
:103DB00001002800C0B256F82000FFF7FFFD002CDC
:103DC0000ED02800C0B256F82000FFF7FAFD50F0E0
:103DD00004000100EDB256F82500FFF7EFFD0DE0FD
:103DE0002800C0B256F82000FFF7EBFD30F00400C9
:103DF0000100EDB256F82500FFF7E0FD70BD2DE99A
:103E0000F841A7B005000F00160028003100C0B22D
:103E1000C9B2884201D1012000E000201C00DFF877
:103E20008C814FF4CE724146C0B2FFF774FA28007D
:103E30002100C0B2C9B2884201D1012000E00020B7
:103E400040F29D124146C0B2FFF765FA02A8142164
:103E500000F092FB342100220DF168084046FFF784
:103E600059F84C2100220DF11C084046FFF752F88A
:103E7000FF003A00002354480021FEF733FF0700FB
:103E80002200D2B23100C9B202A8FFF7A8FD082073
:103E90001B909DF80D008DF870001AAA9DF80C106B
:103EA0000298FFF756FB06201B909DF80D008DF839
:103EB00070001AAA9DF814100498FFF74AFB00201E
:103EC0000790082008900820099002200B900020FD
:103ED0000C9000201290002014903A4C2800C0B2A0
:103EE00054F8200000F08EFC38492A00D2B2382065
:103EF00042430A4407A92800C0B254F8200000F049
:103F00003FFB2800C0B254F82000FFF763FD2A00F1
:103F1000D2B20321BDF91600FFF7CEFCBDF91600A1
:103F2000FFF7C6FC17F01F010091C7F357132A00D3
:103F3000D2B20321C0B2FFF75FFCBDF91600FFF754
:103F4000B7FC2A00D2B20321C0B2FFF7EAFCBDF9E8
:103F50001800ADF800000320ADF8020001208DF834
:103F6000040007221A482900C9B250F821106846F7
:103F700000F0E6FA00212800C0B2FFF7C1FE0021E0
:103F80002800C0B2FFF72EFE28B0BDE8F081000087
:103F9000549A0810000004400000314000023140F3
:103FA0000005314080083140000731407497081007
:103FB0000000604000006540000064400000634075
:103FC0000000624080BF022800809698642C03287D
:103FD0006CBF022800F10103810704D010F8011B17
:103FE000820781B1FAD10268A2F10131914311F047
:103FF000803104BF50F8042FF6E709BAB1FA81F115
:1040000000EBD100401CC01A704700000CB430B562
:1040100083B00A4606A90291044600250194009542
:1040200002AB01A9084878441E3000F03FFC019A19
:10403000157000284EBF04460198041B204603B0AB
:1040400030BC5DF80CFB00BF7BF7FFFF826889186E
:10405000816003E082684169521A82608168426926
:104060009142F7D27047C2688918C16003E0C26804
:104070004169521AC260C16842699142F7D27047E1
:1040800070B50400002C01D0012000E00020542273
:10409000DFF8FC13C0B2FFF73EF90025207850F09E
:1040A000010020700020A0600020E06060692061B5
:1040B0006078002803D0022810D007D315E061698A
:1040C000002266683000FEF725FF0EE061694900B6
:1040D000002266683000FEF71DFF06E06169890076
:1040E000002266683000FEF715FF002020702800CF
:1040F000C0B270BD10B50400002C01D0012000E05A
:1041000000207022DFF88813C0B2FFF704F960695D
:104110002169401A10BD2DE9F84305001600002D55
:1041200001D0012000E000200C00AA22DFF860137B
:10413000C0B2FFF7F0F800270020002C01D10327C0
:10414000B5E0287810F0050F01D00427AFE02878FB
:1041500050F0040028702869B042C0F0A380D5F860
:104160001480A868B8EB0008B04567D268780028CA
:1041700003D0022841D01FD390E042462100686856
:10418000AB6800EB0309484600F022FC41462800DA
:10419000FFF75CFFB6EB080204EB08016868AB6848
:1041A00000EB0304200000F013FCB6EB08084146C6
:1041B0002800FFF74BFF71E05FEA480221006868C2
:1041C000AB6800EB4309484600F002FC414628007A
:1041D000FFF73CFFB6EB0802520004EB48016868A9
:1041E000AB6800EB4304200000F0F2FBB6EB0808DC
:1041F00041462800FFF72AFF50E05FEA88022100CD
:104200006868AB6800EB8309484600F0E1FB414673
:104210002800FFF71BFFB6EB0802920004EB8801B1
:104220006868AB6800EB8304200000F0D1FBB6EBBC
:10423000080841462800FFF709FF2FE068780028AA
:1042400003D002281DD00ED328E032002100686878
:10425000AB6800EB0304200000F0BAFB310028003B
:10426000FFF7F4FE1AE0720021006868AB6800EB0B
:104270004304200000F0ACFB31002800FFF7E6FE0D
:104280000CE0B20021006868AB6800EB83042000FA
:1042900000F09EFB31002800FFF7D8FE2869861B3E
:1042A0002E6100E00527287810F0FB002870380008
:1042B000C0B2BDE8F2832DE9F04705000E001F00F3
:1042C000002D01D0012000E000201400DFF8C081A3
:1042D00040F25B124146C0B2FFF71DF8002C01D03E
:1042E000012000E000204FF4AE724146C0B2FFF75B
:1042F00012F85FF0000800200020002E02D15FF0CD
:1043000003088BE0297811F0030F03D020605FF0E1
:1043100006089CE02800FFF7EDFE2168884209D2DC
:1043200020605FF00708002804D1287810F0F7001B
:1043300028708CE0287850F008002870D5F8149088
:10434000E868B9EB00092068814522D36878002825
:1043500003D0022813D008D35CE022686868E968BB
:104360000144300000F034FB54E0226852006868D9
:10437000E96800EB4101300000F02AFB4AE02268C6
:1043800092006868E96800EB8101300000F020FBD2
:1043900040E06878002803D0022827D011D339E004
:1043A0004A466868E9680144B246504600F010FB8E
:1043B0002268B2EB090269684E44300000F008FB45
:1043C00028E05FEA49026868E96800EB4101B2460B
:1043D000504600F0FDFA2268B2EB0902520069680B
:1043E00006EB4906300000F0F3FA13E05FEA8902B9
:1043F0006868E96800EB8101B246504600F0E8FACF
:104400002268B2EB09029200696806EB8906300067
:1044100000F0DEFA287810F0F7002870FFB2002FC5
:1044200015D128780B2802D15FF002080FE0287818
:1044300050F00200287021682800FFF714FE296957
:10444000206841182961287810F0FD002870404646
:10445000C0B2BDE8F087F8B504000E0017001D00DB
:10446000002C01D0012000E000204FF40772084921
:10447000C0B2FEF750FF0020676000212170667017
:104480000021A1600021E16025616561C0B2F2BD3B
:10449000CC960810010009B2002908D4012210F0BE
:1044A0001F018A401B4900B2400941F82020704793
:1044B000010009B2002908D4012210F01F018A402E
:1044C000154900B2400941F820207047020012B29D
:1044D000002A04D44901114A00B2115407E04901ED
:1044E0000F4A00B210F00F00104400F8041C70478F
:1044F000002800D162B60B480168491C0160704772
:1045000072B608490868002802D00868401E086092
:104510000868704700E100E080E200E000E400E0AD
:1045200018ED00E01033032880B5FFF7E9FF00F035
:10453000A3FA01BD80B5C9B200B2FFF7C7FF01BD44
:1045400070B504000D001600200000F0A5FA290047
:10455000B4F9000000F0DFFA3100C9B2B4F902008A
:10456000FFF7E8FFB4F90200FFF7A2FFB4F9020079
:10457000FFF790FF70BD0000002200F0E3BA0000DA
:104580002DE9F44FDFF8D822DFF8D8321B68DFF8C6
:10459000D8422468DFF8D4522D68DFF8D462366838
:1045A000DFF8D0723F68DFF8D0C2DCF800C0DFF877
:1045B000CCE2DEF800E0DFF8C882D8F80080DFF84F
:1045C000C492D9F80090DFF8C0A2DAF800A0002861
:1045D00000F01581002900F012810A68022A06D134
:1045E00091F82620002A02D15FF0000B03E0D1F8F9
:1045F00004B0BBF1010B91F82420002A01D0012264
:1046000000E0002262F3104333F440436BF30303F2
:10461000022262F3196303600A7812F0030262F364
:104620001964046491F82520002A01D0012200E0D9
:10463000002262F38615CA7E002A01D0012200E022
:10464000002262F38A254A7E002A01D0012200E07E
:10465000002262F308258A7E002A01D0012200E0B0
:10466000002262F349258A6B521E12F00F0262F398
:1046700013450A69521E12F00702ED08ED001543BA
:104680004A6962F304154A69520862F34515856464
:104690000A7B002A01D0012200E0002262F30826F2
:1046A0000A7E002A01D0012200E0002262F349269E
:1046B0008A68521E12F01F02760976011643C0F86E
:1046C00000630A7F02F0FF023F0A3F02174391F89E
:1046D000202002F0FF0262F31747C0F8107391F830
:1046E0002720002A01D0012200E0002262F3082CDA
:1046F0000A69521E12F007025FEADC0C5FEACC0C7A
:1047000052EA0C0C4A6962F3041C4A69520862F3CB
:10471000451CC0F844C00A7B002A01D0012200E0F9
:10472000002262F3082E8A68521E12F01F025FEA0E
:104730005E1E5FEA4E1E52EA0E0E0A68012A01D181
:10474000012200E0002262F3104EC0F800E291F86E
:104750003C2002F0FF025FEA18285FEA082852EACC
:104760000808C0F8048391F82820002A01D001220B
:1047700000E0002262F35969CA6A012A01D10122CC
:1047800000E0002262F318694A6B012A01D101237B
:1047900000E00023009A63F3104991F8303003F0F1
:1047A000FF035FEA19295FEA092953EA0909C0F8FA
:1047B000509091F8443003F0FF035FEA1A2A5FEA51
:1047C0000A2A53EA0A0AC0F804A28B6CC0F8883F90
:1047D000096CC0F8C81F002A10D0002050600020CB
:1047E0001060002090600020D06000201062002047
:1047F000D06200201063DFF89400506300221000A4
:10480000BDE8F28FDFF8881001605FF440110164A9
:104810000021816440F20711C0F800130022C0F8A3
:1048200004230022C0F8102300224264C0F80012C2
:104830000021C0F80412002101650021C0F8C81E43
:104840000021C0F8881E0021C0F8C81F0021C0F850
:10485000881F0021C0F8081F0021C0F8481F7047BA
:104860000160AA008C9A0810909A0810949A081077
:10487000989A08109C9A0810A09A0810A49A0810F8
:10488000A89A0810AC9A0810B09A0810EFCDAB00A7
:104890000F00000370B505461C000846164604D0FC
:1048A00016F8011BA847641EFAD170BD2DE9FC4320
:1048B00083B08146884617461D4607E001233A46E5
:1048C00041464846FFF7E6FF80467F1C3878E0B156
:1048D0002528F3D17978BF1C252912D058295CD01E
:1048E000632915D0642918BF692917D06F2954D0BE
:1048F000702957D073295BD0752918BF78294CD0FF
:10490000E4E74046C8478046E0E705B0BDE8F083ED
:10491000286850F8041B2860C9B2F2E7286850F8EC
:10492000046B2860002E03D52D214046C8478046E1
:1049300064216F2908BF082205D041F020007828A3
:1049400014BF0A2210220B246429304602D1002E03
:1049500048BF4042B0FBF2FC02FB1C003030641E3A
:10496000C3B23A2B05DA0DF804005FEA0C0003D15C
:1049700004E040185138F6E7002CEBDC614211F1FD
:104980000B0F0DEB04064046BDD0C4F10B0416F826
:10499000011BC847641EFAD1B5E7286850F8046BBC
:1049A0002860C6E7286850F8046B28607821C0E7C3
:1049B000286850F8046B28603046FFF70BFB0400B2
:1049C0004046A0D016F8011BC847641EFAD19AE7EA
:1049D00062B38B0708D0521E11F8013B00F8013B6F
:1049E00000F024808B07F6D1830740F0208000BFC1
:1049F000103A07D330B4B1E83810103AA0E83810B4
:104A0000F9D230BC530724BFB1E80810A0E8081061
:104A100044BF51F8043B40F8043BD20724BF31F8AF
:104A2000022B20F8022B44BF0B7803707047121F33
:104A300017D35B0009D151F8043B20F8023B1B0C53
:104A4000121F20F8023BF6D20BE051F8043B00F8AD
:104A5000013B1B0A20F8023B1B0C121F00F8013B14
:104A6000F3D238BF121D521E24BF11F8013B00F8CB
:104A7000013BF8D870470000002007E00549C2015B
:104A80008A5822F00042C301CA50401C3F28F5DB7F
:104A9000704700000000584030B40021234A1368DA
:104AA000234A1468002832D0224A1568C5F303252A
:104AB0000E2D0FD01268C2F303220D2A28D182785E
:104AC00012F00F022409240114430279002A15D0A0
:104AD000012214E0827812F00F021B091B0113431C
:104AE0000279002A01D0012200E0002262F3DF7384
:104AF000114AB0F9000042F8203009E0002262F3C8
:104B0000DF740E4AB0F9000042F8204000E0064988
:104B1000080030BC70470A4B1A68002A03D01A6894
:104B200000B242F82010704701005600B49A0810F5
:104B3000B89A08100000204000A0204000C020408B
:104B400030BF022800B500BF1300964694461039C6
:104B500028BFA0E80C50FAD85FEA417C28BF0CC0FF
:104B600048BF40F8042BC90728BF20F8022B48BFD4
:104B700000F8012B00BD000080B501000820DFF81F
:104B800088251060C9B20120FDF7F4FC0820DFF889
:104B90008815086001BD2DE9F047060015001F00CB
:104BA000DFF868853000B8F8002080B2904201D26A
:104BB000012000E000200C00DFF85495B0224946A7
:104BC000C0B2FEF7A8FBDFF84CA52000BAF8001031
:104BD00080B2884201D2012000E00020B122494683
:104BE000C0B2FEF798FB2800B8F8001080B28842E7
:104BF00001D2012000E00020B2224946C0B2FEF7F7
:104C00008AFB3800BAF8001080B2884201D2012035
:104C100000E00020B3224946C0B2FEF77CFBDFF87B
:104C2000FC040078002805D0022847D024D30328AC
:104C300066D086E02A20FFF79FFF2836310089B230
:104C40000120FDF7ECFC2835290089B20120FDF791
:104C5000E6FC2B20FFF790FF3434210089B20120BD
:104C6000FDF7DDFC3437390089B20120FDF7D7FCB0
:104C70002C20FFF781FF64E02A20FFF77DFF283614
:104C8000310089B20120FDF7CAFC2835290089B21C
:104C90000120FDF7C4FC2B20FFF76EFF3534210007
:104CA00089B20120FDF7BBFC3537390089B20120FC
:104CB000FDF7B5FC2C20FFF75FFF42E02A20FFF74D
:104CC0005BFF3436310089B20120FDF7A8FC343592
:104CD000290089B20120FDF7A2FC2B20FFF74CFF31
:104CE0002834210089B20120FDF799FC28373900CA
:104CF00089B20120FDF793FC2C20FFF73DFF20E057
:104D00002A20FFF739FF3536310089B20120FDF73F
:104D100086FC3535290089B20120FDF780FC2B2067
:104D2000FFF72AFF2834210089B20120FDF777FC24
:104D30002837390089B20120FDF771FC2C20FFF7DC
:104D40001BFFBDE8F08700B585B06846FEF711FB94
:104D50000120ADF80000DFF8B4030088ADF80200D0
:104D6000DFF8B0030088ADF80400DFF80005007834
:104D7000002803D002280FD007D30DE006208DF8BD
:104D8000060008208DF8070006E008208DF80600D0
:104D900010208DF80700FFE70FF2C12003900FF2FB
:104DA000110004906846FEF7F4FA05B000BD00005B
:104DB00070B5002000200820DFF8B4140860DFF888
:104DC0004C43DFF850532888431E9BB22088421E74
:104DD00092B200210020FFF7DEFE002007E0DFF89E
:104DE00094140988DFF8902422F81010401C2188C0
:104DF0008842F4D3002606E02288DFF87C140120E4
:104E0000FDF762FC761C28888642F5D30820DFF87F
:104E10006C14086070BDDFF804130870087800286F
:104E2000012803D9801E012809D910E0F020DFF8FD
:104E3000DC1208808720DFF8DC12088007E087207A
:104E4000DFF8C8120880F020DFF8C8120880704729
:104E5000DFF8181408707047DFF824241080DFF89A
:104E6000140401807047F8B5D8B005000E00140096
:104E70002800DFF89812098880B2884201D2012008
:104E800000E00020DFF888724FF4E9723900C0B208
:104E9000FEF741FA3000DFF87C12098880B28842C0
:104EA00001D2012000E0002040F2D3123900C0B24C
:104EB000FEF731FA002000200820DFF8B413086064
:104EC000DFF8A8030078002804D0022800F0BF8093
:104ED00046D3BCE0F31D9BB26A1D92B2310089B289
:104EE000280080B2FFF757FE002000E0401C0100C0
:104EF000C9B206292EDA0621DFF888232300DBB2A7
:104F00004B431A440300DBB21A4412F8C02C0023AE
:104F10000BE040AD1E00F6B24E4356FA80F6DFF8C5
:104F200054733F8825F8167010E01D00EDB2082D6F
:104F3000DCDAD507EDD540AD1E00F6B24E4356FA89
:104F400080F6DFF83C733F8825F81670D2B252081D
:104F50005B1CEAE7302240A90120FDF7B5FB76E0B3
:104F600016F10F039BB2EA1D92B2310089B22800FC
:104F700080B2FFF710FE002000E0401C0100C9B223
:104F800008295EDADFF800232100C9B209011144C3
:104F90000300DBB21944B1F5007109782300DBB2DC
:104FA0001B011A440300DBB21A44B2F5FC721278FA
:104FB00000231BE06D461E00F6B2F60056FA80F69E
:104FC000DFF8B0723F8825F816700CE0CD07F1D5F8
:104FD0006D461E00F6B2F60056FA80F6DFF8A072B3
:104FE0003F8825F81670C9B249085B1C1D00EDB258
:104FF000082DEBDB00210DE06B460D00EDB2ED005E
:1050000055FA80F503EB4503DFF868522D88A3F8C5
:10501000805012E00B00DBB2082BAEDAD307EBD5E1
:105020006B460D00EDB2ED0055FA80F503EB45033C
:10503000DFF84C522D88A3F88050D2B25208491C98
:10504000E8E7802269460120FDF73EFBFFE70820E4
:10505000DFF8B814086059B0F0BD0000F8B50400DE
:105060000E0015002000DFF8A410098880B28842E5
:1050700001D2012000E00020DFF8947040F22922E4
:105080003900C0B2FEF747F93000DFF88810098810
:1050900080B2884201D2012000E0002040F22A22A2
:1050A0003900C0B2FEF737F900270EE00CE03800F7
:1050B00080B22A5C310089B2380080B2C00010FA98
:1050C00084F080B2FFF7CFFE7F1C380080B2285CEE
:1050D000002817D0DFF8B4010078002803D0022898
:1050E000E4D0E4D3F0E7380080B22A5C310089B222
:1050F0003B009BB20620434313FA84F080B2FFF7D3
:10510000B2FEE1E7F1BD0000040B314094BF02287C
:10511000C495081096BF0228080B3140413303287C
:105120002DE9F047804614009A464046DFF8E42314
:10513000128880B2904201D2012000E000200F00CE
:10514000DFF8D49340F2F9224946C0B2FEF7E3F803
:105150003800DFF8BC13098880B2884201D20120F0
:1051600000E0002040F2FA224946C0B2FEF7D3F830
:10517000002C01D0012000E000200A9D099E40F291
:10518000FB224946C0B2FEF7C6F8002000200020EE
:105190000020082036490860E819431E9BB216EB30
:1051A0000800421E92B2390089B2404680B2FFF731
:1051B000F2FC5FF00009089FDDF82C8007E0320068
:1051C00092B22D490120FDF77FFA19F1010928005B
:1051D00080B2814544D2380080B200FB09F029003A
:1051E00089B2B0FBF1F1504680B241432144002224
:1051F00010E04FF6FF70204B23F8120009E0434601
:10520000DBB280B29BB29842F3D200201A4B23F853
:105210001200521C300080B28242D0D2504680B27E
:1052200000FB02F033009BB2B0FBF3F0085C434696
:10523000DBB2002BE3D10300DBB2DB08DBB2DB0225
:1052400084465FFA8CFC5FEA9C0C5FFA8CFC53EAA4
:105250004C13C0F3C4000343074820F81230D8E7CA
:105260000820DFF8A8120860BDE8F087A0BF022878
:10527000040631409ABF0228842A032808063140D8
:1052800098BF0228D08608102C7A0810A0BF0228E8
:105290001FB50820029004200190012000900123F6
:1052A000A14A00210120FDF7CBFB032300220121AD
:1052B000B32000F0B8F9032300220121B42000F04C
:1052C000B2F9032301220121632000F0ACF903238A
:1052D00001220121582000F0A6F9944C2078FFF714
:1052E0009AFD8F4801888F480088FFF7B5FD102090
:1052F0008F490860052000F08FFA10208D49086062
:10530000782000F089FA0820844908601120FFF70E
:1053100033FC3620FFF730FC2078002805D0022827
:105320000DD007D303280FD012E0A0210120FDF7F4
:1053300021F90DE070210120FDF71CF908E00021A2
:105340000120FDF717F903E0C0210120FDF712F954
:105350003A20FFF711FC05210120FDF70BF9B220DF
:10536000FFF70AFC0C210120FDF704F90C210120B4
:10537000FDF700F900210120FDF7FCF833210120A1
:10538000FDF7F8F833210120FDF7F4F8B720FFF717
:10539000F3FB35210120FDF7EDF8BB20FFF7ECFB17
:1053A00037210120FDF7E6F8C020FFF7E5FB2C21AF
:1053B0000120FDF7DFF8C220FFF7DEFB012101200D
:1053C000FDF7D8F8C320FFF7D7FB12210120FDF726
:1053D000D1F8C420FFF7D0FB20210120FDF7CAF847
:1053E000C620FFF7C9FB0F210120FDF7C3F8D0202D
:1053F000FFF7C2FBA4210120FDF7BCF8A121012089
:10540000FDF7B8F8E020FFF7B7FBD0210120FDF74A
:10541000B1F804210120FDF7ADF80D210120FDF7C1
:10542000A9F811210120FDF7A5F813210120FDF7AE
:10543000A1F82B210120FDF79DF83F210120FDF768
:1054400099F854210120FDF795F84C210120FDF732
:1054500091F818210120FDF78DF80D210120FDF7AD
:1054600089F80B210120FDF785F81F210120FDF7A8
:1054700081F823210120FDF77DF8E120FFF77CFB77
:10548000D0210120FDF776F804210120FDF772F804
:105490000C210120FDF76EF811210120FDF76AF8BB
:1054A00013210120FDF766F82C210120FDF762F899
:1054B0003F210120FDF75EF844210120FDF75AF855
:1054C00051210120FDF756F82F210120FDF752F858
:1054D0001F210120FDF74EF81F210120FDF74AF89A
:1054E00020210120FDF746F823210120FDF742F895
:1054F0002120FFF741FB2920FFF73EFB082003494D
:105500000860FFF755FCFFF71EFC1FBD0806314081
:1055100096BF022894BF0228C495081004063140A3
:105520009ABF022898BF022880C3C90141330328CB
:10553000040B3140080B31400069C84010F00100F5
:105540007047012212FA01F181607047012212FABC
:1055500001F14160704710B48900436C0F248C4006
:10556000A34312F00F0212FA01F11943416410BC77
:10557000704780B5C9B200290ED00100C9B2082217
:1055800091FBF2F302FB1311494AC0B2C010C001F3
:105590001044FFF7D6FF0DE00100C9B2082291FBCD
:1055A000F2F302FB1311424AC0B2C010C001104412
:1055B000FFF7CCFF01BD80B50100C9B2082291FB05
:1055C000F2F302FB13113A4AC0B2C010C0011044FA
:1055D000FFF7B2FFC0B202BD10B5C9B200290BD1AE
:1055E000D2B2002A02D0022A02D003E00F220BE03E
:1055F0000B2209E00A2207E0D2B2042A01D10C22D0
:1056000000E00E2212F007020100C9B2082391FB4C
:10561000F3F403FB1411264BC0B2C010C0011844B0
:10562000FFF799FF10BD2DE9F8418DB004000E0081
:1056300015001F0034210022E8464046FDF76AFCB1
:10564000F6B2002E0ED1FFB2002F02D0022F03D0EF
:1056500005E00F2001900DE0082001900AE00820ED
:10566000019007E0FFB2042F02D10F20019001E06A
:105670000E2001902000C0B2C0280FD02100C9B276
:1056800008206A4691FBF0F300FB13110848230041
:10569000DBB2DB10DB011844FDF75BFF2900C9B268
:1056A0002000C0B2FFF765FF0EB0BDE8F08100003A
:1056B00000003140022801D301200FE00B00DBB2D3
:1056C000042B01DB012009E0954B03EB8000C9B2FC
:1056D000405C824201D3012000E000207047F8B511
:1056E00006000F0015001C00022E01D301201CE053
:1056F0002A003900C9B23000FFF7DCFF012801D1D0
:10570000012012E03800C0B2002811D1B4F5807F2A
:105710000CD284487603304400EB850010F58050AD
:10572000016864F30F2101600020F2BD0120FCE755
:10573000FFB2012F10D1B4F5803F0BD27948760328
:10574000304400EB850010F5A050016864F3172188
:105750000160E9E70120E8E70120E6E700B2001276
:10576000C0B27047F8B505000E001700280000B25F
:10577000FFF7F4FF04002000C0B2022801D301208B
:1057800023E03A003100C9B22000C0B2FFF792FF17
:10579000012801D1012018E062492000C0B2400375
:1057A00008442A00D2B200EB8200D0F8000CF6B216
:1057B00066F3092067F30700E4B264032144EDB205
:1057C00001EB8501C1F8000C0020F2BD70B50400AA
:1057D0000D001600022C01D301201CE0320029002C
:1057E000C9B22000FFF766FF012801D1012012E0B5
:1057F0004C496003085850F0004050F0407050F49D
:105800007F00EDB265F3092066F30700620388505C
:1058100064030859002070BDF8B504004FF4FA5035
:105820004443414D414E00212878C001304400F0EE
:1058300048F914E02878C001304400F044F9B84237
:10584000F8D33B4F3C192878C001304400F03BF9B5
:105850003F1839002878C001304400F032F94CF28A
:105860005137BC42E6D22878C001304400F02BF911
:105870008442F8D2F1BD38B594B0502100226C4674
:105880002000FDF747FB2B4C00220121B4F900005A
:10589000FFF768FFB4F90000FFF760FF092300225B
:1058A0000121C0B2FFF71BFFB4F90000FFF756FF5C
:1058B00000220121C0B2FFF789FF5FF0FF300090A6
:1058C00000208DF8040000208DF8050000208DF8E0
:1058D000060000208DF8080003208DF84400012008
:1058E000129001208DF807000F4C104D694620786A
:1058F000C001284400F020F82078C001284400F0BE
:10590000DBF800212078C001284400F0DAF8207884
:10591000C001284400F0E7F815B030BD00000000D9
:10592000549A081000000440A1BF0228000059400A
:10593000B03CFFFF9CBF022810B4012291F84C300C
:10594000052B03D291F84D30052B01D31000A7E0B1
:10595000002800F0A480002900F0A180514A1268BC
:105960004B7963F392428B7913F0030363F3114293
:105970000B7A13F0070363F31A62CB7963F39E7219
:105980000B7D63F3000291F8243063F3410202605F
:105990000A7910F130031C6862F307041C604A792D
:1059A000012A0BD18A79002A02D10022826007E005
:1059B0008A79012A04D10A68826001E001228260AA
:1059C000CA6802610A694261CA6982610A6AC2617F
:1059D0000A680262344A12680B7E03F0FF03120A5F
:1059E00012021A4391F8303003F0FF0363F31742B9
:1059F00091F8403003F0FF0363F31F6291F84830E1
:105A000003F0FF0363F30F224264284A126891F8FF
:105A1000383003F0FF03120A12021A4391F82830BB
:105A200003F0FF0363F30F228264214A12688B7D27
:105A300013F00303920892001A4391F8253013F0F3
:105A4000030363F38B2291F82C3013F0030363F309
:105A5000051291F8343013F0030363F3092291F82F
:105A60003C3013F0030363F3871291F8443013F0D2
:105A7000030363F38302C2640E4A126891F84C3048
:105A800013F00703D208D2001A4391F84D3013F0F7
:105A9000070363F306124265497D81670022100007
:105AA00010BC7047BC9A0810C09A0810C49A08101D
:105AB000C89A0810CC9A0810016851F000410160A2
:105AC000704781607047806870477830016851F096
:105AD00001010160704710F170010A6852F0010283
